{
	"abi": [
		{
			"inputs": [
				{
					"internalType": "address",
					"name": "_lzEndpoint",
					"type": "address"
				}
			],
			"stateMutability": "nonpayable",
			"type": "constructor"
		},
		{
			"anonymous": false,
			"inputs": [
				{
					"indexed": false,
					"internalType": "uint16",
					"name": "_srcChainId",
					"type": "uint16"
				},
				{
					"indexed": false,
					"internalType": "bytes",
					"name": "_srcAddress",
					"type": "bytes"
				},
				{
					"indexed": false,
					"internalType": "uint64",
					"name": "_nonce",
					"type": "uint64"
				},
				{
					"indexed": false,
					"internalType": "bytes",
					"name": "_payload",
					"type": "bytes"
				}
			],
			"name": "MessageFailed",
			"type": "event"
		},
		{
			"anonymous": false,
			"inputs": [
				{
					"indexed": true,
					"internalType": "address",
					"name": "previousOwner",
					"type": "address"
				},
				{
					"indexed": true,
					"internalType": "address",
					"name": "newOwner",
					"type": "address"
				}
			],
			"name": "OwnershipTransferred",
			"type": "event"
		},
		{
			"anonymous": false,
			"inputs": [
				{
					"indexed": false,
					"internalType": "uint16",
					"name": "_srcChainId",
					"type": "uint16"
				},
				{
					"indexed": false,
					"internalType": "bytes",
					"name": "_srcAddress",
					"type": "bytes"
				}
			],
			"name": "SetTrustedRemote",
			"type": "event"
		},
		{
			"inputs": [],
			"name": "admin",
			"outputs": [
				{
					"internalType": "address",
					"name": "",
					"type": "address"
				}
			],
			"stateMutability": "view",
			"type": "function"
		},
		{
			"inputs": [],
			"name": "counter",
			"outputs": [
				{
					"internalType": "uint256",
					"name": "",
					"type": "uint256"
				}
			],
			"stateMutability": "view",
			"type": "function"
		},
		{
			"inputs": [
				{
					"internalType": "uint16",
					"name": "",
					"type": "uint16"
				},
				{
					"internalType": "bytes",
					"name": "",
					"type": "bytes"
				},
				{
					"internalType": "uint64",
					"name": "",
					"type": "uint64"
				}
			],
			"name": "failedMessages",
			"outputs": [
				{
					"internalType": "bytes32",
					"name": "",
					"type": "bytes32"
				}
			],
			"stateMutability": "view",
			"type": "function"
		},
		{
			"inputs": [
				{
					"internalType": "uint16",
					"name": "_srcChainId",
					"type": "uint16"
				},
				{
					"internalType": "bytes",
					"name": "_srcAddress",
					"type": "bytes"
				}
			],
			"name": "forceResumeReceive",
			"outputs": [],
			"stateMutability": "nonpayable",
			"type": "function"
		},
		{
			"inputs": [
				{
					"internalType": "uint16",
					"name": "_version",
					"type": "uint16"
				},
				{
					"internalType": "uint16",
					"name": "_chainId",
					"type": "uint16"
				},
				{
					"internalType": "address",
					"name": "",
					"type": "address"
				},
				{
					"internalType": "uint256",
					"name": "_configType",
					"type": "uint256"
				}
			],
			"name": "getConfig",
			"outputs": [
				{
					"internalType": "bytes",
					"name": "",
					"type": "bytes"
				}
			],
			"stateMutability": "view",
			"type": "function"
		},
		{
			"inputs": [
				{
					"internalType": "uint16",
					"name": "_srcChainId",
					"type": "uint16"
				},
				{
					"internalType": "bytes",
					"name": "_srcAddress",
					"type": "bytes"
				}
			],
			"name": "isTrustedRemote",
			"outputs": [
				{
					"internalType": "bool",
					"name": "",
					"type": "bool"
				}
			],
			"stateMutability": "view",
			"type": "function"
		},
		{
			"inputs": [],
			"name": "lzEndpoint",
			"outputs": [
				{
					"internalType": "contract ILayerZeroEndpoint",
					"name": "",
					"type": "address"
				}
			],
			"stateMutability": "view",
			"type": "function"
		},
		{
			"inputs": [
				{
					"internalType": "uint16",
					"name": "_srcChainId",
					"type": "uint16"
				},
				{
					"internalType": "bytes",
					"name": "_srcAddress",
					"type": "bytes"
				},
				{
					"internalType": "uint64",
					"name": "_nonce",
					"type": "uint64"
				},
				{
					"internalType": "bytes",
					"name": "_payload",
					"type": "bytes"
				}
			],
			"name": "lzReceive",
			"outputs": [],
			"stateMutability": "nonpayable",
			"type": "function"
		},
		{
			"inputs": [
				{
					"internalType": "uint16",
					"name": "_srcChainId",
					"type": "uint16"
				},
				{
					"internalType": "bytes",
					"name": "_srcAddress",
					"type": "bytes"
				},
				{
					"internalType": "uint64",
					"name": "_nonce",
					"type": "uint64"
				},
				{
					"internalType": "bytes",
					"name": "_payload",
					"type": "bytes"
				}
			],
			"name": "nonblockingLzReceive",
			"outputs": [],
			"stateMutability": "nonpayable",
			"type": "function"
		},
		{
			"inputs": [],
			"name": "owner",
			"outputs": [
				{
					"internalType": "address",
					"name": "",
					"type": "address"
				}
			],
			"stateMutability": "view",
			"type": "function"
		},
		{
			"inputs": [],
			"name": "renounceOwnership",
			"outputs": [],
			"stateMutability": "nonpayable",
			"type": "function"
		},
		{
			"inputs": [
				{
					"internalType": "uint16",
					"name": "_chainId",
					"type": "uint16"
				}
			],
			"name": "retrieveTrustedRemoteLookup",
			"outputs": [
				{
					"internalType": "address",
					"name": "",
					"type": "address"
				}
			],
			"stateMutability": "view",
			"type": "function"
		},
		{
			"inputs": [
				{
					"internalType": "uint16",
					"name": "_srcChainId",
					"type": "uint16"
				},
				{
					"internalType": "bytes",
					"name": "_srcAddress",
					"type": "bytes"
				},
				{
					"internalType": "uint64",
					"name": "_nonce",
					"type": "uint64"
				},
				{
					"internalType": "bytes",
					"name": "_payload",
					"type": "bytes"
				}
			],
			"name": "retryMessage",
			"outputs": [],
			"stateMutability": "payable",
			"type": "function"
		},
		{
			"inputs": [
				{
					"internalType": "uint16",
					"name": "_version",
					"type": "uint16"
				},
				{
					"internalType": "uint16",
					"name": "_chainId",
					"type": "uint16"
				},
				{
					"internalType": "uint256",
					"name": "_configType",
					"type": "uint256"
				},
				{
					"internalType": "bytes",
					"name": "_config",
					"type": "bytes"
				}
			],
			"name": "setConfig",
			"outputs": [],
			"stateMutability": "nonpayable",
			"type": "function"
		},
		{
			"inputs": [
				{
					"internalType": "uint16",
					"name": "_version",
					"type": "uint16"
				}
			],
			"name": "setReceiveVersion",
			"outputs": [],
			"stateMutability": "nonpayable",
			"type": "function"
		},
		{
			"inputs": [
				{
					"internalType": "uint16",
					"name": "_version",
					"type": "uint16"
				}
			],
			"name": "setSendVersion",
			"outputs": [],
			"stateMutability": "nonpayable",
			"type": "function"
		},
		{
			"inputs": [
				{
					"internalType": "address",
					"name": "_tokenContract",
					"type": "address"
				}
			],
			"name": "setTokenContract",
			"outputs": [],
			"stateMutability": "nonpayable",
			"type": "function"
		},
		{
			"inputs": [
				{
					"internalType": "uint16",
					"name": "_srcChainId",
					"type": "uint16"
				},
				{
					"internalType": "bytes",
					"name": "_srcAddress",
					"type": "bytes"
				}
			],
			"name": "setTrustedRemote",
			"outputs": [],
			"stateMutability": "nonpayable",
			"type": "function"
		},
		{
			"inputs": [],
			"name": "tokenContract",
			"outputs": [
				{
					"internalType": "address",
					"name": "",
					"type": "address"
				}
			],
			"stateMutability": "view",
			"type": "function"
		},
		{
			"inputs": [
				{
					"internalType": "uint16",
					"name": "_dstChainId",
					"type": "uint16"
				},
				{
					"internalType": "address",
					"name": "_recipient",
					"type": "address"
				},
				{
					"internalType": "uint256",
					"name": "_amount",
					"type": "uint256"
				}
			],
			"name": "transfer",
			"outputs": [],
			"stateMutability": "payable",
			"type": "function"
		},
		{
			"inputs": [
				{
					"internalType": "address",
					"name": "newOwner",
					"type": "address"
				}
			],
			"name": "transferOwnership",
			"outputs": [],
			"stateMutability": "nonpayable",
			"type": "function"
		},
		{
			"inputs": [
				{
					"internalType": "uint16",
					"name": "",
					"type": "uint16"
				}
			],
			"name": "trustedRemoteLookup",
			"outputs": [
				{
					"internalType": "bytes",
					"name": "",
					"type": "bytes"
				}
			],
			"stateMutability": "view",
			"type": "function"
		}
	],
	"bytecode": {
		"object": "0x60a060405234801561001057600080fd5b5060405162001c2f38038062001c2f833981016040819052610031916100b7565b808061003c33610067565b60601b6001600160601b031916608052505060058054336001600160a01b03199091161790556100e5565b600080546001600160a01b038381166001600160a01b0319831681178455604051919092169283917f8be0079c531659141344cd1fd0a4f28419497f9722a3daafe3b4186f6b6457e09190a35050565b6000602082840312156100c8578081fd5b81516001600160a01b03811681146100de578182fd5b9392505050565b60805160601c611afa6200013560003960008181610360015281816104580152818161061d0152818161069f015281816107c101528181610ba701528181610e8001526113410152611afa6000f3fe6080604052600436106101345760003560e01c80637533d788116100ab578063cbed8b9c1161006f578063cbed8b9c146103a2578063d1deba1f146103c2578063eb8d72b7146103d5578063f2fde38b146103f5578063f5ecbdbc14610415578063f851a4401461043557600080fd5b80637533d788146102f05780638da5cb5b1461031d578063ada1ddca1461033b578063b353aaa71461034e578063bbcd5bbe1461038257600080fd5b80634f952968116100fd5780634f952968146101f057806355a373d6146102285780635b8c41e61461024857806361bc221a146102a557806366ad5c8a146102bb578063715018a6146102db57600080fd5b80621d35671461013957806307e0db171461015b57806310ddb1371461017b5780633d8b38f61461019b57806342d65a8d146101d0575b600080fd5b34801561014557600080fd5b50610159610154366004611712565b610455565b005b34801561016757600080fd5b5061015961017636600461160f565b6105fc565b34801561018757600080fd5b5061015961019636600461160f565b61067e565b3480156101a757600080fd5b506101bb6101b6366004611667565b6106d6565b60405190151581526020015b60405180910390f35b3480156101dc57600080fd5b506101596101eb366004611667565b6107a2565b3480156101fc57600080fd5b5061021061020b36600461160f565b610831565b6040516001600160a01b0390911681526020016101c7565b34801561023457600080fd5b50600454610210906001600160a01b031681565b34801561025457600080fd5b506102976102633660046116b7565b6002602090815260009384526040808520845180860184018051928152908401958401959095209452929052825290205481565b6040519081526020016101c7565b3480156102b157600080fd5b5061029760035481565b3480156102c757600080fd5b506101596102d6366004611712565b6108e6565b3480156102e757600080fd5b50610159610956565b3480156102fc57600080fd5b5061031061030b36600461160f565b61096a565b6040516101c791906118cc565b34801561032957600080fd5b506000546001600160a01b0316610210565b610159610349366004611629565b610a04565b34801561035a57600080fd5b506102107f000000000000000000000000000000000000000000000000000000000000000081565b34801561038e57600080fd5b5061015961039d36600461151a565b610b39565b3480156103ae57600080fd5b506101596103bd3660046117df565b610b88565b6101596103d0366004611712565b610c1d565b3480156103e157600080fd5b506101596103f0366004611667565b610d6f565b34801561040157600080fd5b5061015961041036600461151a565b610dd6565b34801561042157600080fd5b50610310610430366004611793565b610e4f565b34801561044157600080fd5b50600554610210906001600160a01b031681565b337f00000000000000000000000000000000000000000000000000000000000000006001600160a01b0316146104d25760405162461bcd60e51b815260206004820152601e60248201527f4c7a4170703a20696e76616c696420656e64706f696e742063616c6c6572000060448201526064015b60405180910390fd5b61ffff8416600090815260016020526040812080546104f090611a5e565b80601f016020809104026020016040519081016040528092919081815260200182805461051c90611a5e565b80156105695780601f1061053e57610100808354040283529160200191610569565b820191906000526020600020905b81548152906001019060200180831161054c57829003601f168201915b505050505090508051845114801561058e575080805190602001208480519060200120145b6105e95760405162461bcd60e51b815260206004820152602660248201527f4c7a4170703a20696e76616c696420736f757263652073656e64696e6720636f6044820152651b9d1c9858dd60d21b60648201526084016104c9565b6105f585858585610f0f565b5050505050565b610604611000565b6040516307e0db1760e01b815261ffff821660048201527f00000000000000000000000000000000000000000000000000000000000000006001600160a01b0316906307e0db17906024015b600060405180830381600087803b15801561066a57600080fd5b505af11580156105f5573d6000803e3d6000fd5b610686611000565b6040516310ddb13760e01b815261ffff821660048201527f00000000000000000000000000000000000000000000000000000000000000006001600160a01b0316906310ddb13790602401610650565b61ffff8316600090815260016020526040812080548291906106f790611a5e565b80601f016020809104026020016040519081016040528092919081815260200182805461072390611a5e565b80156107705780601f1061074557610100808354040283529160200191610770565b820191906000526020600020905b81548152906001019060200180831161075357829003601f168201915b5050505050905083836040516107879291906118a0565b60405180910390208180519060200120149150509392505050565b6107aa611000565b6040516342d65a8d60e01b81526001600160a01b037f000000000000000000000000000000000000000000000000000000000000000016906342d65a8d906107fa908690869086906004016118df565b600060405180830381600087803b15801561081457600080fd5b505af1158015610828573d6000803e3d6000fd5b50505050505050565b61ffff81166000908152600160205260408120805461084f90611a5e565b80601f016020809104026020016040519081016040528092919081815260200182805461087b90611a5e565b80156108c85780601f1061089d576101008083540402835291602001916108c8565b820191906000526020600020905b8154815290600101906020018083116108ab57829003601f168201915b50505050508060200190518101906108e0919061153d565b92915050565b3330146109445760405162461bcd60e51b815260206004820152602660248201527f4e6f6e626c6f636b696e674c7a4170703a2063616c6c6572206d7573742062656044820152650204c7a4170760d41b60648201526084016104c9565b6109508484848461105a565b50505050565b61095e611000565b61096860006111d2565b565b6001602052600090815260409020805461098390611a5e565b80601f01602080910402602001604051908101604052809291908181526020018280546109af90611a5e565b80156109fc5780601f106109d1576101008083540402835291602001916109fc565b820191906000526020600020905b8154815290600101906020018083116109df57829003601f168201915b505050505081565b604080516001600160a01b038416602082015290810182905260009060600160408051808303601f1901815290829052600480546323b872dd60e01b84523391840191909152306024840152604483018590529092506001600160a01b0316906323b872dd90606401602060405180830381600087803b158015610a8757600080fd5b505af1158015610a9b573d6000803e3d6000fd5b505050506040513d601f19601f82011682018060405250810190610abf9190611586565b5060048054604051636d1b229d60e01b81529182018490526001600160a01b031690636d1b229d90602401600060405180830381600087803b158015610b0457600080fd5b505af1158015610b18573d6000803e3d6000fd5b50505050610950848233600060405180602001604052806000815250611222565b6005546001600160a01b03163314610b5057600080fd5b6004546001600160a01b031615610b6657600080fd5b600480546001600160a01b0319166001600160a01b0392909216919091179055565b610b90611000565b6040516332fb62e760e21b81526001600160a01b037f0000000000000000000000000000000000000000000000000000000000000000169063cbed8b9c90610be490889088908890889088906004016119ad565b600060405180830381600087803b158015610bfe57600080fd5b505af1158015610c12573d6000803e3d6000fd5b505050505050505050565b61ffff84166000908152600260205260408082209051610c3e9086906118b0565b90815260408051602092819003830190206001600160401b03861660009081529252902054905080610cbe5760405162461bcd60e51b815260206004820152602360248201527f4e6f6e626c6f636b696e674c7a4170703a206e6f2073746f726564206d65737360448201526261676560e81b60648201526084016104c9565b815160208301208114610d1d5760405162461bcd60e51b815260206004820152602160248201527f4e6f6e626c6f636b696e674c7a4170703a20696e76616c6964207061796c6f616044820152601960fa1b60648201526084016104c9565b61ffff85166000908152600260205260408082209051610d3e9087906118b0565b90815260408051602092819003830190206001600160401b038716600090815292529020556105f58585858561105a565b610d77611000565b61ffff83166000908152600160205260409020610d959083836113bc565b507ffa41487ad5d6728f0b19276fa1eddc16558578f5109fc39d2dc33c3230470dab838383604051610dc9939291906118df565b60405180910390a1505050565b610dde611000565b6001600160a01b038116610e435760405162461bcd60e51b815260206004820152602660248201527f4f776e61626c653a206e6577206f776e657220697320746865207a65726f206160448201526564647265737360d01b60648201526084016104c9565b610e4c816111d2565b50565b604051633d7b2f6f60e21b815261ffff808616600483015284166024820152306044820152606481018290526060907f00000000000000000000000000000000000000000000000000000000000000006001600160a01b03169063f5ecbdbc9060840160006040518083038186803b158015610eca57600080fd5b505afa158015610ede573d6000803e3d6000fd5b505050506040513d6000823e601f3d908101601f19168201604052610f0691908101906115a6565b95945050505050565b604051633356ae4560e11b815230906366ad5c8a90610f38908790879087908790600401611964565b600060405180830381600087803b158015610f5257600080fd5b505af1925050508015610f63575060015b610950578080519060200120600260008661ffff1661ffff16815260200190815260200160002084604051610f9891906118b0565b9081526040805191829003602090810183206001600160401b0387166000908152915220919091557fe6f254030bcb01ffd20558175c13fcaed6d1520be7becee4c961b65f79243b0d90610ff3908690869086908690611964565b60405180910390a1610950565b6000546001600160a01b031633146109685760405162461bcd60e51b815260206004820181905260248201527f4f776e61626c653a2063616c6c6572206973206e6f7420746865206f776e657260448201526064016104c9565b600081806020019051810190611070919061153d565b61ffff861660009081526001602052604081208054929350909161109390611a5e565b80601f01602080910402602001604051908101604052809291908181526020018280546110bf90611a5e565b801561110c5780601f106110e15761010080835404028352916020019161110c565b820191906000526020600020905b8154815290600101906020018083116110ef57829003601f168201915b5050505050806020019051810190611124919061153d565b9050816001600160a01b0316816001600160a01b03161461114457600080fd5b6000808480602001905181019061115b9190611559565b60048054604051631188ab8560e21b81526001600160a01b0380861693820193909352602481018490529395509193501690634622ae1490604401600060405180830381600087803b1580156111b057600080fd5b505af11580156111c4573d6000803e3d6000fd5b505050505050505050505050565b600080546001600160a01b038381166001600160a01b0319831681178455604051919092169283917f8be0079c531659141344cd1fd0a4f28419497f9722a3daafe3b4186f6b6457e09190a35050565b61ffff85166000908152600160205260408120805461124090611a5e565b80601f016020809104026020016040519081016040528092919081815260200182805461126c90611a5e565b80156112b95780601f1061128e576101008083540402835291602001916112b9565b820191906000526020600020905b81548152906001019060200180831161129c57829003601f168201915b5050505050905080516000141561132b5760405162461bcd60e51b815260206004820152603060248201527f4c7a4170703a2064657374696e6174696f6e20636861696e206973206e6f742060448201526f61207472757374656420736f7572636560801b60648201526084016104c9565b60405162c5803160e81b81526001600160a01b037f0000000000000000000000000000000000000000000000000000000000000000169063c5803100903490611382908a9086908b908b908b908b906004016118fd565b6000604051808303818588803b15801561139b57600080fd5b505af11580156113af573d6000803e3d6000fd5b5050505050505050505050565b8280546113c890611a5e565b90600052602060002090601f0160209004810192826113ea5760008555611430565b82601f106114035782800160ff19823516178555611430565b82800160010185558215611430579182015b82811115611430578235825591602001919060010190611415565b5061143c929150611440565b5090565b5b8082111561143c5760008155600101611441565b60008083601f840112611466578182fd5b5081356001600160401b0381111561147c578182fd5b60208301915083602082850101111561149457600080fd5b9250929050565b600082601f8301126114ab578081fd5b81356114be6114b982611a0b565b6119db565b8181528460208386010111156114d2578283fd5b816020850160208301379081016020019190915292915050565b803561ffff811681146114fe57600080fd5b919050565b80356001600160401b03811681146114fe57600080fd5b60006020828403121561152b578081fd5b813561153681611aaf565b9392505050565b60006020828403121561154e578081fd5b815161153681611aaf565b6000806040838503121561156b578081fd5b825161157681611aaf565b6020939093015192949293505050565b600060208284031215611597578081fd5b81518015158114611536578182fd5b6000602082840312156115b7578081fd5b81516001600160401b038111156115cc578182fd5b8201601f810184136115dc578182fd5b80516115ea6114b982611a0b565b8181528560208385010111156115fe578384fd5b610f06826020830160208601611a32565b600060208284031215611620578081fd5b611536826114ec565b60008060006060848603121561163d578081fd5b611646846114ec565b9250602084013561165681611aaf565b929592945050506040919091013590565b60008060006040848603121561167b578283fd5b611684846114ec565b925060208401356001600160401b0381111561169e578283fd5b6116aa86828701611455565b9497909650939450505050565b6000806000606084860312156116cb578283fd5b6116d4846114ec565b925060208401356001600160401b038111156116ee578283fd5b6116fa8682870161149b565b92505061170960408501611503565b90509250925092565b60008060008060808587031215611727578081fd5b611730856114ec565b935060208501356001600160401b038082111561174b578283fd5b6117578883890161149b565b945061176560408801611503565b9350606087013591508082111561177a578283fd5b506117878782880161149b565b91505092959194509250565b600080600080608085870312156117a8578384fd5b6117b1856114ec565b93506117bf602086016114ec565b925060408501356117cf81611aaf565b9396929550929360600135925050565b6000806000806000608086880312156117f6578283fd5b6117ff866114ec565b945061180d602087016114ec565b93506040860135925060608601356001600160401b0381111561182e578182fd5b61183a88828901611455565b969995985093965092949392505050565b81835281816020850137506000828201602090810191909152601f909101601f19169091010190565b6000815180845261188c816020860160208601611a32565b601f01601f19169290920160200192915050565b8183823760009101908152919050565b600082516118c2818460208701611a32565b9190910192915050565b6020815260006115366020830184611874565b61ffff84168152604060208201526000610f0660408301848661184b565b61ffff8716815260c06020820152600061191a60c0830188611874565b828103604084015261192c8188611874565b6001600160a01b0387811660608601528616608085015283810360a085015290506119578185611874565b9998505050505050505050565b61ffff851681526080602082015260006119816080830186611874565b6001600160401b038516604084015282810360608401526119a28185611874565b979650505050505050565b600061ffff8088168352808716602084015250846040830152608060608301526119a260808301848661184b565b604051601f8201601f191681016001600160401b0381118282101715611a0357611a03611a99565b604052919050565b60006001600160401b03821115611a2457611a24611a99565b50601f01601f191660200190565b60005b83811015611a4d578181015183820152602001611a35565b838111156109505750506000910152565b600181811c90821680611a7257607f821691505b60208210811415611a9357634e487b7160e01b600052602260045260246000fd5b50919050565b634e487b7160e01b600052604160045260246000fd5b6001600160a01b0381168114610e4c57600080fdfea2646970667358221220f720087c453c2a7d52d57b1b6ca7cac28363f7db70a3a2fc0402deb5c781615464736f6c63430008040033",
		"linkReferences": {}
	}
}