{
  "abi": [
    {
      "inputs": [
        {
          "internalType": "address",
          "name": "_lzEndpoint",
          "type": "address"
        }
      ],
      "stateMutability": "nonpayable",
      "type": "constructor"
    },
    {
      "anonymous": false,
      "inputs": [
        {
          "indexed": false,
          "internalType": "uint16",
          "name": "_srcChainId",
          "type": "uint16"
        },
        {
          "indexed": false,
          "internalType": "bytes",
          "name": "_srcAddress",
          "type": "bytes"
        },
        {
          "indexed": false,
          "internalType": "uint64",
          "name": "_nonce",
          "type": "uint64"
        },
        {
          "indexed": false,
          "internalType": "bytes",
          "name": "_payload",
          "type": "bytes"
        }
      ],
      "name": "MessageFailed",
      "type": "event"
    },
    {
      "anonymous": false,
      "inputs": [
        {
          "indexed": true,
          "internalType": "address",
          "name": "previousOwner",
          "type": "address"
        },
        {
          "indexed": true,
          "internalType": "address",
          "name": "newOwner",
          "type": "address"
        }
      ],
      "name": "OwnershipTransferred",
      "type": "event"
    },
    {
      "anonymous": false,
      "inputs": [
        {
          "indexed": false,
          "internalType": "uint16",
          "name": "_srcChainId",
          "type": "uint16"
        },
        {
          "indexed": false,
          "internalType": "bytes",
          "name": "_srcAddress",
          "type": "bytes"
        }
      ],
      "name": "SetTrustedRemote",
      "type": "event"
    },
    {
      "inputs": [],
      "name": "admin",
      "outputs": [
        {
          "internalType": "address",
          "name": "",
          "type": "address"
        }
      ],
      "stateMutability": "view",
      "type": "function"
    },
    {
      "inputs": [],
      "name": "counter",
      "outputs": [
        {
          "internalType": "uint256",
          "name": "",
          "type": "uint256"
        }
      ],
      "stateMutability": "view",
      "type": "function"
    },
    {
      "inputs": [
        {
          "internalType": "uint16",
          "name": "",
          "type": "uint16"
        },
        {
          "internalType": "bytes",
          "name": "",
          "type": "bytes"
        },
        {
          "internalType": "uint64",
          "name": "",
          "type": "uint64"
        }
      ],
      "name": "failedMessages",
      "outputs": [
        {
          "internalType": "bytes32",
          "name": "",
          "type": "bytes32"
        }
      ],
      "stateMutability": "view",
      "type": "function"
    },
    {
      "inputs": [
        {
          "internalType": "uint16",
          "name": "_srcChainId",
          "type": "uint16"
        },
        {
          "internalType": "bytes",
          "name": "_srcAddress",
          "type": "bytes"
        }
      ],
      "name": "forceResumeReceive",
      "outputs": [],
      "stateMutability": "nonpayable",
      "type": "function"
    },
    {
      "inputs": [
        {
          "internalType": "uint16",
          "name": "_version",
          "type": "uint16"
        },
        {
          "internalType": "uint16",
          "name": "_chainId",
          "type": "uint16"
        },
        {
          "internalType": "address",
          "name": "",
          "type": "address"
        },
        {
          "internalType": "uint256",
          "name": "_configType",
          "type": "uint256"
        }
      ],
      "name": "getConfig",
      "outputs": [
        {
          "internalType": "bytes",
          "name": "",
          "type": "bytes"
        }
      ],
      "stateMutability": "view",
      "type": "function"
    },
    {
      "inputs": [
        {
          "internalType": "uint16",
          "name": "_srcChainId",
          "type": "uint16"
        },
        {
          "internalType": "bytes",
          "name": "_srcAddress",
          "type": "bytes"
        }
      ],
      "name": "isTrustedRemote",
      "outputs": [
        {
          "internalType": "bool",
          "name": "",
          "type": "bool"
        }
      ],
      "stateMutability": "view",
      "type": "function"
    },
    {
      "inputs": [],
      "name": "lzEndpoint",
      "outputs": [
        {
          "internalType": "contract ILayerZeroEndpoint",
          "name": "",
          "type": "address"
        }
      ],
      "stateMutability": "view",
      "type": "function"
    },
    {
      "inputs": [
        {
          "internalType": "uint16",
          "name": "_srcChainId",
          "type": "uint16"
        },
        {
          "internalType": "bytes",
          "name": "_srcAddress",
          "type": "bytes"
        },
        {
          "internalType": "uint64",
          "name": "_nonce",
          "type": "uint64"
        },
        {
          "internalType": "bytes",
          "name": "_payload",
          "type": "bytes"
        }
      ],
      "name": "lzReceive",
      "outputs": [],
      "stateMutability": "nonpayable",
      "type": "function"
    },
    {
      "inputs": [
        {
          "internalType": "uint16",
          "name": "_srcChainId",
          "type": "uint16"
        },
        {
          "internalType": "bytes",
          "name": "_srcAddress",
          "type": "bytes"
        },
        {
          "internalType": "uint64",
          "name": "_nonce",
          "type": "uint64"
        },
        {
          "internalType": "bytes",
          "name": "_payload",
          "type": "bytes"
        }
      ],
      "name": "nonblockingLzReceive",
      "outputs": [],
      "stateMutability": "nonpayable",
      "type": "function"
    },
    {
      "inputs": [],
      "name": "owner",
      "outputs": [
        {
          "internalType": "address",
          "name": "",
          "type": "address"
        }
      ],
      "stateMutability": "view",
      "type": "function"
    },
    {
      "inputs": [],
      "name": "renounceOwnership",
      "outputs": [],
      "stateMutability": "nonpayable",
      "type": "function"
    },
    {
      "inputs": [
        {
          "internalType": "uint16",
          "name": "_srcChainId",
          "type": "uint16"
        },
        {
          "internalType": "bytes",
          "name": "_srcAddress",
          "type": "bytes"
        },
        {
          "internalType": "uint64",
          "name": "_nonce",
          "type": "uint64"
        },
        {
          "internalType": "bytes",
          "name": "_payload",
          "type": "bytes"
        }
      ],
      "name": "retryMessage",
      "outputs": [],
      "stateMutability": "payable",
      "type": "function"
    },
    {
      "inputs": [
        {
          "internalType": "uint16",
          "name": "_version",
          "type": "uint16"
        },
        {
          "internalType": "uint16",
          "name": "_chainId",
          "type": "uint16"
        },
        {
          "internalType": "uint256",
          "name": "_configType",
          "type": "uint256"
        },
        {
          "internalType": "bytes",
          "name": "_config",
          "type": "bytes"
        }
      ],
      "name": "setConfig",
      "outputs": [],
      "stateMutability": "nonpayable",
      "type": "function"
    },
    {
      "inputs": [
        {
          "internalType": "uint16",
          "name": "_version",
          "type": "uint16"
        }
      ],
      "name": "setReceiveVersion",
      "outputs": [],
      "stateMutability": "nonpayable",
      "type": "function"
    },
    {
      "inputs": [
        {
          "internalType": "uint16",
          "name": "_version",
          "type": "uint16"
        }
      ],
      "name": "setSendVersion",
      "outputs": [],
      "stateMutability": "nonpayable",
      "type": "function"
    },
    {
      "inputs": [
        {
          "internalType": "address",
          "name": "_tokenContract",
          "type": "address"
        }
      ],
      "name": "setTokenContract",
      "outputs": [],
      "stateMutability": "nonpayable",
      "type": "function"
    },
    {
      "inputs": [
        {
          "internalType": "uint16",
          "name": "_srcChainId",
          "type": "uint16"
        },
        {
          "internalType": "bytes",
          "name": "_srcAddress",
          "type": "bytes"
        }
      ],
      "name": "setTrustedRemote",
      "outputs": [],
      "stateMutability": "nonpayable",
      "type": "function"
    },
    {
      "inputs": [
        {
          "internalType": "address",
          "name": "_desintationContract",
          "type": "address"
        },
        {
          "internalType": "uint16",
          "name": "_chainId",
          "type": "uint16"
        }
      ],
      "name": "setTrustedRemoteLookup",
      "outputs": [],
      "stateMutability": "nonpayable",
      "type": "function"
    },
    {
      "inputs": [],
      "name": "tokenContract",
      "outputs": [
        {
          "internalType": "address",
          "name": "",
          "type": "address"
        }
      ],
      "stateMutability": "view",
      "type": "function"
    },
    {
      "inputs": [
        {
          "internalType": "uint16",
          "name": "_dstChainId",
          "type": "uint16"
        },
        {
          "internalType": "address",
          "name": "_recipient",
          "type": "address"
        },
        {
          "internalType": "uint256",
          "name": "_amount",
          "type": "uint256"
        }
      ],
      "name": "transfer",
      "outputs": [],
      "stateMutability": "payable",
      "type": "function"
    },
    {
      "inputs": [
        {
          "internalType": "address",
          "name": "newOwner",
          "type": "address"
        }
      ],
      "name": "transferOwnership",
      "outputs": [],
      "stateMutability": "nonpayable",
      "type": "function"
    },
    {
      "inputs": [
        {
          "internalType": "uint16",
          "name": "",
          "type": "uint16"
        }
      ],
      "name": "trustedRemoteLookup",
      "outputs": [
        {
          "internalType": "bytes",
          "name": "",
          "type": "bytes"
        }
      ],
      "stateMutability": "view",
      "type": "function"
    }
  ],
  "bytecode": {
    "object": "0x60a060405234801561001057600080fd5b5060405162001b2738038062001b27833981016040819052610031916100b7565b808061003c33610067565b60601b6001600160601b031916608052505060058054336001600160a01b03199091161790556100e5565b600080546001600160a01b038381166001600160a01b0319831681178455604051919092169283917f8be0079c531659141344cd1fd0a4f28419497f9722a3daafe3b4186f6b6457e09190a35050565b6000602082840312156100c8578081fd5b81516001600160a01b03811681146100de578182fd5b9392505050565b60805160601c6119f26200013560003960008181610360015281816104580152818161061d0152818161069f015281816107c101528181610a8b01528181610d64015261122501526119f26000f3fe6080604052600436106101345760003560e01c80637533d788116100ab578063cbed8b9c1161006f578063cbed8b9c146103a2578063d1deba1f146103c2578063eb8d72b7146103d5578063f2fde38b146103f5578063f5ecbdbc14610415578063f851a4401461043557600080fd5b80637533d788146102f05780638da5cb5b1461031d578063ada1ddca1461033b578063b353aaa71461034e578063bbcd5bbe1461038257600080fd5b80634da5026e116100fd5780634da5026e146101f057806355a373d6146102105780635b8c41e61461024857806361bc221a146102a557806366ad5c8a146102bb578063715018a6146102db57600080fd5b80621d35671461013957806307e0db171461015b57806310ddb1371461017b5780633d8b38f61461019b57806342d65a8d146101d0575b600080fd5b34801561014557600080fd5b5061015961015436600461160a565b610455565b005b34801561016757600080fd5b50610159610176366004611507565b6105fc565b34801561018757600080fd5b50610159610196366004611507565b61067e565b3480156101a757600080fd5b506101bb6101b636600461155f565b6106d6565b60405190151581526020015b60405180910390f35b3480156101dc57600080fd5b506101596101eb36600461155f565b6107a2565b3480156101fc57600080fd5b5061015961020b36600461146a565b610831565b34801561021c57600080fd5b50600454610230906001600160a01b031681565b6040516001600160a01b0390911681526020016101c7565b34801561025457600080fd5b506102976102633660046115af565b6002602090815260009384526040808520845180860184018051928152908401958401959095209452929052825290205481565b6040519081526020016101c7565b3480156102b157600080fd5b5061029760035481565b3480156102c757600080fd5b506101596102d636600461160a565b610856565b3480156102e757600080fd5b506101596108c6565b3480156102fc57600080fd5b5061031061030b366004611507565b6108da565b6040516101c791906117c4565b34801561032957600080fd5b506000546001600160a01b0316610230565b610159610349366004611521565b610974565b34801561035a57600080fd5b506102307f000000000000000000000000000000000000000000000000000000000000000081565b34801561038e57600080fd5b5061015961039d3660046113fe565b610a1d565b3480156103ae57600080fd5b506101596103bd3660046116d7565b610a6c565b6101596103d036600461160a565b610b01565b3480156103e157600080fd5b506101596103f036600461155f565b610c53565b34801561040157600080fd5b506101596104103660046113fe565b610cba565b34801561042157600080fd5b5061031061043036600461168b565b610d33565b34801561044157600080fd5b50600554610230906001600160a01b031681565b337f00000000000000000000000000000000000000000000000000000000000000006001600160a01b0316146104d25760405162461bcd60e51b815260206004820152601e60248201527f4c7a4170703a20696e76616c696420656e64706f696e742063616c6c6572000060448201526064015b60405180910390fd5b61ffff8416600090815260016020526040812080546104f090611956565b80601f016020809104026020016040519081016040528092919081815260200182805461051c90611956565b80156105695780601f1061053e57610100808354040283529160200191610569565b820191906000526020600020905b81548152906001019060200180831161054c57829003601f168201915b505050505090508051845114801561058e575080805190602001208480519060200120145b6105e95760405162461bcd60e51b815260206004820152602660248201527f4c7a4170703a20696e76616c696420736f757263652073656e64696e6720636f6044820152651b9d1c9858dd60d21b60648201526084016104c9565b6105f585858585610df3565b5050505050565b610604610ee4565b6040516307e0db1760e01b815261ffff821660048201527f00000000000000000000000000000000000000000000000000000000000000006001600160a01b0316906307e0db17906024015b600060405180830381600087803b15801561066a57600080fd5b505af11580156105f5573d6000803e3d6000fd5b610686610ee4565b6040516310ddb13760e01b815261ffff821660048201527f00000000000000000000000000000000000000000000000000000000000000006001600160a01b0316906310ddb13790602401610650565b61ffff8316600090815260016020526040812080548291906106f790611956565b80601f016020809104026020016040519081016040528092919081815260200182805461072390611956565b80156107705780601f1061074557610100808354040283529160200191610770565b820191906000526020600020905b81548152906001019060200180831161075357829003601f168201915b505050505090508383604051610787929190611798565b60405180910390208180519060200120149150509392505050565b6107aa610ee4565b6040516342d65a8d60e01b81526001600160a01b037f000000000000000000000000000000000000000000000000000000000000000016906342d65a8d906107fa908690869086906004016117d7565b600060405180830381600087803b15801561081457600080fd5b505af1158015610828573d6000803e3d6000fd5b50505050505050565b6005546001600160a01b0316331461084857600080fd5b6108528282610831565b5050565b3330146108b45760405162461bcd60e51b815260206004820152602660248201527f4e6f6e626c6f636b696e674c7a4170703a2063616c6c6572206d7573742062656044820152650204c7a4170760d41b60648201526084016104c9565b6108c084848484610f3e565b50505050565b6108ce610ee4565b6108d860006110b6565b565b600160205260009081526040902080546108f390611956565b80601f016020809104026020016040519081016040528092919081815260200182805461091f90611956565b801561096c5780601f106109415761010080835404028352916020019161096c565b820191906000526020600020905b81548152906001019060200180831161094f57829003601f168201915b505050505081565b604080516001600160a01b038416602082015290810182905260009060600160408051808303601f190181529082905260048054636d1b229d60e01b84529083018590529092506001600160a01b031690636d1b229d90602401600060405180830381600087803b1580156109e857600080fd5b505af11580156109fc573d6000803e3d6000fd5b505050506108c0848233600060405180602001604052806000815250611106565b6005546001600160a01b03163314610a3457600080fd5b6004546001600160a01b031615610a4a57600080fd5b600480546001600160a01b0319166001600160a01b0392909216919091179055565b610a74610ee4565b6040516332fb62e760e21b81526001600160a01b037f0000000000000000000000000000000000000000000000000000000000000000169063cbed8b9c90610ac890889088908890889088906004016118a5565b600060405180830381600087803b158015610ae257600080fd5b505af1158015610af6573d6000803e3d6000fd5b505050505050505050565b61ffff84166000908152600260205260408082209051610b229086906117a8565b90815260408051602092819003830190206001600160401b03861660009081529252902054905080610ba25760405162461bcd60e51b815260206004820152602360248201527f4e6f6e626c6f636b696e674c7a4170703a206e6f2073746f726564206d65737360448201526261676560e81b60648201526084016104c9565b815160208301208114610c015760405162461bcd60e51b815260206004820152602160248201527f4e6f6e626c6f636b696e674c7a4170703a20696e76616c6964207061796c6f616044820152601960fa1b60648201526084016104c9565b61ffff85166000908152600260205260408082209051610c229087906117a8565b90815260408051602092819003830190206001600160401b038716600090815292529020556105f585858585610f3e565b610c5b610ee4565b61ffff83166000908152600160205260409020610c799083836112a0565b507ffa41487ad5d6728f0b19276fa1eddc16558578f5109fc39d2dc33c3230470dab838383604051610cad939291906117d7565b60405180910390a1505050565b610cc2610ee4565b6001600160a01b038116610d275760405162461bcd60e51b815260206004820152602660248201527f4f776e61626c653a206e6577206f776e657220697320746865207a65726f206160448201526564647265737360d01b60648201526084016104c9565b610d30816110b6565b50565b604051633d7b2f6f60e21b815261ffff808616600483015284166024820152306044820152606481018290526060907f00000000000000000000000000000000000000000000000000000000000000006001600160a01b03169063f5ecbdbc9060840160006040518083038186803b158015610dae57600080fd5b505afa158015610dc2573d6000803e3d6000fd5b505050506040513d6000823e601f3d908101601f19168201604052610dea919081019061149e565b95945050505050565b604051633356ae4560e11b815230906366ad5c8a90610e1c90879087908790879060040161185c565b600060405180830381600087803b158015610e3657600080fd5b505af1925050508015610e47575060015b6108c0578080519060200120600260008661ffff1661ffff16815260200190815260200160002084604051610e7c91906117a8565b9081526040805191829003602090810183206001600160401b0387166000908152915220919091557fe6f254030bcb01ffd20558175c13fcaed6d1520be7becee4c961b65f79243b0d90610ed790869086908690869061185c565b60405180910390a16108c0565b6000546001600160a01b031633146108d85760405162461bcd60e51b815260206004820181905260248201527f4f776e61626c653a2063616c6c6572206973206e6f7420746865206f776e657260448201526064016104c9565b600081806020019051810190610f549190611421565b61ffff8616600090815260016020526040812080549293509091610f7790611956565b80601f0160208091040260200160405190810160405280929190818152602001828054610fa390611956565b8015610ff05780601f10610fc557610100808354040283529160200191610ff0565b820191906000526020600020905b815481529060010190602001808311610fd357829003601f168201915b50505050508060200190518101906110089190611421565b9050816001600160a01b0316816001600160a01b03161461102857600080fd5b6000808480602001905181019061103f919061143d565b60048054604051631188ab8560e21b81526001600160a01b0380861693820193909352602481018490529395509193501690634622ae1490604401600060405180830381600087803b15801561109457600080fd5b505af11580156110a8573d6000803e3d6000fd5b505050505050505050505050565b600080546001600160a01b038381166001600160a01b0319831681178455604051919092169283917f8be0079c531659141344cd1fd0a4f28419497f9722a3daafe3b4186f6b6457e09190a35050565b61ffff85166000908152600160205260408120805461112490611956565b80601f016020809104026020016040519081016040528092919081815260200182805461115090611956565b801561119d5780601f106111725761010080835404028352916020019161119d565b820191906000526020600020905b81548152906001019060200180831161118057829003601f168201915b5050505050905080516000141561120f5760405162461bcd60e51b815260206004820152603060248201527f4c7a4170703a2064657374696e6174696f6e20636861696e206973206e6f742060448201526f61207472757374656420736f7572636560801b60648201526084016104c9565b60405162c5803160e81b81526001600160a01b037f0000000000000000000000000000000000000000000000000000000000000000169063c5803100903490611266908a9086908b908b908b908b906004016117f5565b6000604051808303818588803b15801561127f57600080fd5b505af1158015611293573d6000803e3d6000fd5b5050505050505050505050565b8280546112ac90611956565b90600052602060002090601f0160209004810192826112ce5760008555611314565b82601f106112e75782800160ff19823516178555611314565b82800160010185558215611314579182015b828111156113145782358255916020019190600101906112f9565b50611320929150611324565b5090565b5b808211156113205760008155600101611325565b60008083601f84011261134a578182fd5b5081356001600160401b03811115611360578182fd5b60208301915083602082850101111561137857600080fd5b9250929050565b600082601f83011261138f578081fd5b81356113a261139d82611903565b6118d3565b8181528460208386010111156113b6578283fd5b816020850160208301379081016020019190915292915050565b803561ffff811681146113e257600080fd5b919050565b80356001600160401b03811681146113e257600080fd5b60006020828403121561140f578081fd5b813561141a816119a7565b9392505050565b600060208284031215611432578081fd5b815161141a816119a7565b6000806040838503121561144f578081fd5b825161145a816119a7565b6020939093015192949293505050565b6000806040838503121561147c578182fd5b8235611487816119a7565b9150611495602084016113d0565b90509250929050565b6000602082840312156114af578081fd5b81516001600160401b038111156114c4578182fd5b8201601f810184136114d4578182fd5b80516114e261139d82611903565b8181528560208385010111156114f6578384fd5b610dea82602083016020860161192a565b600060208284031215611518578081fd5b61141a826113d0565b600080600060608486031215611535578081fd5b61153e846113d0565b9250602084013561154e816119a7565b929592945050506040919091013590565b600080600060408486031215611573578283fd5b61157c846113d0565b925060208401356001600160401b03811115611596578283fd5b6115a286828701611339565b9497909650939450505050565b6000806000606084860312156115c3578283fd5b6115cc846113d0565b925060208401356001600160401b038111156115e6578283fd5b6115f28682870161137f565b925050611601604085016113e7565b90509250925092565b6000806000806080858703121561161f578081fd5b611628856113d0565b935060208501356001600160401b0380821115611643578283fd5b61164f8883890161137f565b945061165d604088016113e7565b93506060870135915080821115611672578283fd5b5061167f8782880161137f565b91505092959194509250565b600080600080608085870312156116a0578384fd5b6116a9856113d0565b93506116b7602086016113d0565b925060408501356116c7816119a7565b9396929550929360600135925050565b6000806000806000608086880312156116ee578283fd5b6116f7866113d0565b9450611705602087016113d0565b93506040860135925060608601356001600160401b03811115611726578182fd5b61173288828901611339565b969995985093965092949392505050565b81835281816020850137506000828201602090810191909152601f909101601f19169091010190565b6000815180845261178481602086016020860161192a565b601f01601f19169290920160200192915050565b8183823760009101908152919050565b600082516117ba81846020870161192a565b9190910192915050565b60208152600061141a602083018461176c565b61ffff84168152604060208201526000610dea604083018486611743565b61ffff8716815260c06020820152600061181260c083018861176c565b8281036040840152611824818861176c565b6001600160a01b0387811660608601528616608085015283810360a0850152905061184f818561176c565b9998505050505050505050565b61ffff85168152608060208201526000611879608083018661176c565b6001600160401b0385166040840152828103606084015261189a818561176c565b979650505050505050565b600061ffff80881683528087166020840152508460408301526080606083015261189a608083018486611743565b604051601f8201601f191681016001600160401b03811182821017156118fb576118fb611991565b604052919050565b60006001600160401b0382111561191c5761191c611991565b50601f01601f191660200190565b60005b8381101561194557818101518382015260200161192d565b838111156108c05750506000910152565b600181811c9082168061196a57607f821691505b6020821081141561198b57634e487b7160e01b600052602260045260246000fd5b50919050565b634e487b7160e01b600052604160045260246000fd5b6001600160a01b0381168114610d3057600080fdfea2646970667358221220ec1d3e9bdddb5bddc89a71e0b4b219e316d4a6a14db2625c800c284d52751d1164736f6c63430008040033",
    "linkReferences": {}
  },
  "methodIdentifiers": {
    "admin()": "f851a440",
    "counter()": "61bc221a",
    "failedMessages(uint16,bytes,uint64)": "5b8c41e6",
    "forceResumeReceive(uint16,bytes)": "42d65a8d",
    "getConfig(uint16,uint16,address,uint256)": "f5ecbdbc",
    "isTrustedRemote(uint16,bytes)": "3d8b38f6",
    "lzEndpoint()": "b353aaa7",
    "lzReceive(uint16,bytes,uint64,bytes)": "001d3567",
    "nonblockingLzReceive(uint16,bytes,uint64,bytes)": "66ad5c8a",
    "owner()": "8da5cb5b",
    "renounceOwnership()": "715018a6",
    "retryMessage(uint16,bytes,uint64,bytes)": "d1deba1f",
    "setConfig(uint16,uint16,uint256,bytes)": "cbed8b9c",
    "setReceiveVersion(uint16)": "10ddb137",
    "setSendVersion(uint16)": "07e0db17",
    "setTokenContract(address)": "bbcd5bbe",
    "setTrustedRemote(uint16,bytes)": "eb8d72b7",
    "setTrustedRemoteLookup(address,uint16)": "4da5026e",
    "tokenContract()": "55a373d6",
    "transfer(uint16,address,uint256)": "ada1ddca",
    "transferOwnership(address)": "f2fde38b",
    "trustedRemoteLookup(uint16)": "7533d788"
  },
  "id": 3
}