{
  "abi": [
    {
      "inputs": [
        {
          "internalType": "address",
          "name": "_lzEndpoint",
          "type": "address"
        }
      ],
      "stateMutability": "nonpayable",
      "type": "constructor"
    },
    {
      "anonymous": false,
      "inputs": [
        {
          "indexed": false,
          "internalType": "uint16",
          "name": "_srcChainId",
          "type": "uint16"
        },
        {
          "indexed": false,
          "internalType": "bytes",
          "name": "_srcAddress",
          "type": "bytes"
        },
        {
          "indexed": false,
          "internalType": "uint64",
          "name": "_nonce",
          "type": "uint64"
        },
        {
          "indexed": false,
          "internalType": "bytes",
          "name": "_payload",
          "type": "bytes"
        }
      ],
      "name": "MessageFailed",
      "type": "event"
    },
    {
      "anonymous": false,
      "inputs": [
        {
          "indexed": true,
          "internalType": "address",
          "name": "previousOwner",
          "type": "address"
        },
        {
          "indexed": true,
          "internalType": "address",
          "name": "newOwner",
          "type": "address"
        }
      ],
      "name": "OwnershipTransferred",
      "type": "event"
    },
    {
      "anonymous": false,
      "inputs": [
        {
          "indexed": false,
          "internalType": "uint16",
          "name": "_srcChainId",
          "type": "uint16"
        },
        {
          "indexed": false,
          "internalType": "bytes",
          "name": "_srcAddress",
          "type": "bytes"
        }
      ],
      "name": "SetTrustedRemote",
      "type": "event"
    },
    {
      "inputs": [],
      "name": "admin",
      "outputs": [
        {
          "internalType": "address",
          "name": "",
          "type": "address"
        }
      ],
      "stateMutability": "view",
      "type": "function"
    },
    {
      "inputs": [],
      "name": "counter",
      "outputs": [
        {
          "internalType": "uint256",
          "name": "",
          "type": "uint256"
        }
      ],
      "stateMutability": "view",
      "type": "function"
    },
    {
      "inputs": [
        {
          "internalType": "uint16",
          "name": "",
          "type": "uint16"
        },
        {
          "internalType": "bytes",
          "name": "",
          "type": "bytes"
        },
        {
          "internalType": "uint64",
          "name": "",
          "type": "uint64"
        }
      ],
      "name": "failedMessages",
      "outputs": [
        {
          "internalType": "bytes32",
          "name": "",
          "type": "bytes32"
        }
      ],
      "stateMutability": "view",
      "type": "function"
    },
    {
      "inputs": [
        {
          "internalType": "uint16",
          "name": "_srcChainId",
          "type": "uint16"
        },
        {
          "internalType": "bytes",
          "name": "_srcAddress",
          "type": "bytes"
        }
      ],
      "name": "forceResumeReceive",
      "outputs": [],
      "stateMutability": "nonpayable",
      "type": "function"
    },
    {
      "inputs": [
        {
          "internalType": "uint16",
          "name": "_version",
          "type": "uint16"
        },
        {
          "internalType": "uint16",
          "name": "_chainId",
          "type": "uint16"
        },
        {
          "internalType": "address",
          "name": "",
          "type": "address"
        },
        {
          "internalType": "uint256",
          "name": "_configType",
          "type": "uint256"
        }
      ],
      "name": "getConfig",
      "outputs": [
        {
          "internalType": "bytes",
          "name": "",
          "type": "bytes"
        }
      ],
      "stateMutability": "view",
      "type": "function"
    },
    {
      "inputs": [
        {
          "internalType": "uint16",
          "name": "_srcChainId",
          "type": "uint16"
        },
        {
          "internalType": "bytes",
          "name": "_srcAddress",
          "type": "bytes"
        }
      ],
      "name": "isTrustedRemote",
      "outputs": [
        {
          "internalType": "bool",
          "name": "",
          "type": "bool"
        }
      ],
      "stateMutability": "view",
      "type": "function"
    },
    {
      "inputs": [],
      "name": "lzEndpoint",
      "outputs": [
        {
          "internalType": "contract ILayerZeroEndpoint",
          "name": "",
          "type": "address"
        }
      ],
      "stateMutability": "view",
      "type": "function"
    },
    {
      "inputs": [
        {
          "internalType": "uint16",
          "name": "_srcChainId",
          "type": "uint16"
        },
        {
          "internalType": "bytes",
          "name": "_srcAddress",
          "type": "bytes"
        },
        {
          "internalType": "uint64",
          "name": "_nonce",
          "type": "uint64"
        },
        {
          "internalType": "bytes",
          "name": "_payload",
          "type": "bytes"
        }
      ],
      "name": "lzReceive",
      "outputs": [],
      "stateMutability": "nonpayable",
      "type": "function"
    },
    {
      "inputs": [
        {
          "internalType": "uint16",
          "name": "_srcChainId",
          "type": "uint16"
        },
        {
          "internalType": "bytes",
          "name": "_srcAddress",
          "type": "bytes"
        },
        {
          "internalType": "uint64",
          "name": "_nonce",
          "type": "uint64"
        },
        {
          "internalType": "bytes",
          "name": "_payload",
          "type": "bytes"
        }
      ],
      "name": "nonblockingLzReceive",
      "outputs": [],
      "stateMutability": "nonpayable",
      "type": "function"
    },
    {
      "inputs": [],
      "name": "owner",
      "outputs": [
        {
          "internalType": "address",
          "name": "",
          "type": "address"
        }
      ],
      "stateMutability": "view",
      "type": "function"
    },
    {
      "inputs": [],
      "name": "renounceOwnership",
      "outputs": [],
      "stateMutability": "nonpayable",
      "type": "function"
    },
    {
      "inputs": [
        {
          "internalType": "uint16",
          "name": "_chainId",
          "type": "uint16"
        }
      ],
      "name": "retrieveTrustedRemoteLookup",
      "outputs": [
        {
          "internalType": "address",
          "name": "",
          "type": "address"
        }
      ],
      "stateMutability": "view",
      "type": "function"
    },
    {
      "inputs": [
        {
          "internalType": "uint16",
          "name": "_srcChainId",
          "type": "uint16"
        },
        {
          "internalType": "bytes",
          "name": "_srcAddress",
          "type": "bytes"
        },
        {
          "internalType": "uint64",
          "name": "_nonce",
          "type": "uint64"
        },
        {
          "internalType": "bytes",
          "name": "_payload",
          "type": "bytes"
        }
      ],
      "name": "retryMessage",
      "outputs": [],
      "stateMutability": "payable",
      "type": "function"
    },
    {
      "inputs": [
        {
          "internalType": "uint16",
          "name": "_version",
          "type": "uint16"
        },
        {
          "internalType": "uint16",
          "name": "_chainId",
          "type": "uint16"
        },
        {
          "internalType": "uint256",
          "name": "_configType",
          "type": "uint256"
        },
        {
          "internalType": "bytes",
          "name": "_config",
          "type": "bytes"
        }
      ],
      "name": "setConfig",
      "outputs": [],
      "stateMutability": "nonpayable",
      "type": "function"
    },
    {
      "inputs": [
        {
          "internalType": "uint16",
          "name": "_version",
          "type": "uint16"
        }
      ],
      "name": "setReceiveVersion",
      "outputs": [],
      "stateMutability": "nonpayable",
      "type": "function"
    },
    {
      "inputs": [
        {
          "internalType": "uint16",
          "name": "_version",
          "type": "uint16"
        }
      ],
      "name": "setSendVersion",
      "outputs": [],
      "stateMutability": "nonpayable",
      "type": "function"
    },
    {
      "inputs": [
        {
          "internalType": "address",
          "name": "_tokenContract",
          "type": "address"
        }
      ],
      "name": "setTokenContract",
      "outputs": [],
      "stateMutability": "nonpayable",
      "type": "function"
    },
    {
      "inputs": [
        {
          "internalType": "uint16",
          "name": "_srcChainId",
          "type": "uint16"
        },
        {
          "internalType": "bytes",
          "name": "_srcAddress",
          "type": "bytes"
        }
      ],
      "name": "setTrustedRemote",
      "outputs": [],
      "stateMutability": "nonpayable",
      "type": "function"
    },
    {
      "inputs": [],
      "name": "tokenContract",
      "outputs": [
        {
          "internalType": "address",
          "name": "",
          "type": "address"
        }
      ],
      "stateMutability": "view",
      "type": "function"
    },
    {
      "inputs": [
        {
          "internalType": "uint16",
          "name": "_dstChainId",
          "type": "uint16"
        },
        {
          "internalType": "address",
          "name": "_recipient",
          "type": "address"
        },
        {
          "internalType": "uint256",
          "name": "_amount",
          "type": "uint256"
        }
      ],
      "name": "transfer",
      "outputs": [],
      "stateMutability": "payable",
      "type": "function"
    },
    {
      "inputs": [
        {
          "internalType": "address",
          "name": "newOwner",
          "type": "address"
        }
      ],
      "name": "transferOwnership",
      "outputs": [],
      "stateMutability": "nonpayable",
      "type": "function"
    },
    {
      "inputs": [
        {
          "internalType": "uint16",
          "name": "",
          "type": "uint16"
        }
      ],
      "name": "trustedRemoteLookup",
      "outputs": [
        {
          "internalType": "bytes",
          "name": "",
          "type": "bytes"
        }
      ],
      "stateMutability": "view",
      "type": "function"
    }
  ],
  "bytecode": {
    "object": "0x60a060405234801561001057600080fd5b5060405162001b8338038062001b83833981016040819052610031916100b7565b808061003c33610067565b60601b6001600160601b031916608052505060058054336001600160a01b03199091161790556100e5565b600080546001600160a01b038381166001600160a01b0319831681178455604051919092169283917f8be0079c531659141344cd1fd0a4f28419497f9722a3daafe3b4186f6b6457e09190a35050565b6000602082840312156100c8578081fd5b81516001600160a01b03811681146100de578182fd5b9392505050565b60805160601c611a4e6200013560003960008181610360015281816104580152818161061d0152818161069f015281816107c101528181610b1b01528181610df401526112b50152611a4e6000f3fe6080604052600436106101345760003560e01c80637533d788116100ab578063cbed8b9c1161006f578063cbed8b9c146103a2578063d1deba1f146103c2578063eb8d72b7146103d5578063f2fde38b146103f5578063f5ecbdbc14610415578063f851a4401461043557600080fd5b80637533d788146102f05780638da5cb5b1461031d578063ada1ddca1461033b578063b353aaa71461034e578063bbcd5bbe1461038257600080fd5b80634f952968116100fd5780634f952968146101f057806355a373d6146102285780635b8c41e61461024857806361bc221a146102a557806366ad5c8a146102bb578063715018a6146102db57600080fd5b80621d35671461013957806307e0db171461015b57806310ddb1371461017b5780633d8b38f61461019b57806342d65a8d146101d0575b600080fd5b34801561014557600080fd5b50610159610154366004611666565b610455565b005b34801561016757600080fd5b50610159610176366004611563565b6105fc565b34801561018757600080fd5b50610159610196366004611563565b61067e565b3480156101a757600080fd5b506101bb6101b63660046115bb565b6106d6565b60405190151581526020015b60405180910390f35b3480156101dc57600080fd5b506101596101eb3660046115bb565b6107a2565b3480156101fc57600080fd5b5061021061020b366004611563565b610831565b6040516001600160a01b0390911681526020016101c7565b34801561023457600080fd5b50600454610210906001600160a01b031681565b34801561025457600080fd5b5061029761026336600461160b565b6002602090815260009384526040808520845180860184018051928152908401958401959095209452929052825290205481565b6040519081526020016101c7565b3480156102b157600080fd5b5061029760035481565b3480156102c757600080fd5b506101596102d6366004611666565b6108e6565b3480156102e757600080fd5b50610159610956565b3480156102fc57600080fd5b5061031061030b366004611563565b61096a565b6040516101c79190611820565b34801561032957600080fd5b506000546001600160a01b0316610210565b61015961034936600461157d565b610a04565b34801561035a57600080fd5b506102107f000000000000000000000000000000000000000000000000000000000000000081565b34801561038e57600080fd5b5061015961039d36600461148e565b610aad565b3480156103ae57600080fd5b506101596103bd366004611733565b610afc565b6101596103d0366004611666565b610b91565b3480156103e157600080fd5b506101596103f03660046115bb565b610ce3565b34801561040157600080fd5b5061015961041036600461148e565b610d4a565b34801561042157600080fd5b506103106104303660046116e7565b610dc3565b34801561044157600080fd5b50600554610210906001600160a01b031681565b337f00000000000000000000000000000000000000000000000000000000000000006001600160a01b0316146104d25760405162461bcd60e51b815260206004820152601e60248201527f4c7a4170703a20696e76616c696420656e64706f696e742063616c6c6572000060448201526064015b60405180910390fd5b61ffff8416600090815260016020526040812080546104f0906119b2565b80601f016020809104026020016040519081016040528092919081815260200182805461051c906119b2565b80156105695780601f1061053e57610100808354040283529160200191610569565b820191906000526020600020905b81548152906001019060200180831161054c57829003601f168201915b505050505090508051845114801561058e575080805190602001208480519060200120145b6105e95760405162461bcd60e51b815260206004820152602660248201527f4c7a4170703a20696e76616c696420736f757263652073656e64696e6720636f6044820152651b9d1c9858dd60d21b60648201526084016104c9565b6105f585858585610e83565b5050505050565b610604610f74565b6040516307e0db1760e01b815261ffff821660048201527f00000000000000000000000000000000000000000000000000000000000000006001600160a01b0316906307e0db17906024015b600060405180830381600087803b15801561066a57600080fd5b505af11580156105f5573d6000803e3d6000fd5b610686610f74565b6040516310ddb13760e01b815261ffff821660048201527f00000000000000000000000000000000000000000000000000000000000000006001600160a01b0316906310ddb13790602401610650565b61ffff8316600090815260016020526040812080548291906106f7906119b2565b80601f0160208091040260200160405190810160405280929190818152602001828054610723906119b2565b80156107705780601f1061074557610100808354040283529160200191610770565b820191906000526020600020905b81548152906001019060200180831161075357829003601f168201915b5050505050905083836040516107879291906117f4565b60405180910390208180519060200120149150509392505050565b6107aa610f74565b6040516342d65a8d60e01b81526001600160a01b037f000000000000000000000000000000000000000000000000000000000000000016906342d65a8d906107fa90869086908690600401611833565b600060405180830381600087803b15801561081457600080fd5b505af1158015610828573d6000803e3d6000fd5b50505050505050565b61ffff81166000908152600160205260408120805461084f906119b2565b80601f016020809104026020016040519081016040528092919081815260200182805461087b906119b2565b80156108c85780601f1061089d576101008083540402835291602001916108c8565b820191906000526020600020905b8154815290600101906020018083116108ab57829003601f168201915b50505050508060200190518101906108e091906114b1565b92915050565b3330146109445760405162461bcd60e51b815260206004820152602660248201527f4e6f6e626c6f636b696e674c7a4170703a2063616c6c6572206d7573742062656044820152650204c7a4170760d41b60648201526084016104c9565b61095084848484610fce565b50505050565b61095e610f74565b6109686000611146565b565b60016020526000908152604090208054610983906119b2565b80601f01602080910402602001604051908101604052809291908181526020018280546109af906119b2565b80156109fc5780601f106109d1576101008083540402835291602001916109fc565b820191906000526020600020905b8154815290600101906020018083116109df57829003601f168201915b505050505081565b604080516001600160a01b038416602082015290810182905260009060600160408051808303601f190181529082905260048054636d1b229d60e01b84529083018590529092506001600160a01b031690636d1b229d90602401600060405180830381600087803b158015610a7857600080fd5b505af1158015610a8c573d6000803e3d6000fd5b50505050610950848233600060405180602001604052806000815250611196565b6005546001600160a01b03163314610ac457600080fd5b6004546001600160a01b031615610ada57600080fd5b600480546001600160a01b0319166001600160a01b0392909216919091179055565b610b04610f74565b6040516332fb62e760e21b81526001600160a01b037f0000000000000000000000000000000000000000000000000000000000000000169063cbed8b9c90610b589088908890889088908890600401611901565b600060405180830381600087803b158015610b7257600080fd5b505af1158015610b86573d6000803e3d6000fd5b505050505050505050565b61ffff84166000908152600260205260408082209051610bb2908690611804565b90815260408051602092819003830190206001600160401b03861660009081529252902054905080610c325760405162461bcd60e51b815260206004820152602360248201527f4e6f6e626c6f636b696e674c7a4170703a206e6f2073746f726564206d65737360448201526261676560e81b60648201526084016104c9565b815160208301208114610c915760405162461bcd60e51b815260206004820152602160248201527f4e6f6e626c6f636b696e674c7a4170703a20696e76616c6964207061796c6f616044820152601960fa1b60648201526084016104c9565b61ffff85166000908152600260205260408082209051610cb2908790611804565b90815260408051602092819003830190206001600160401b038716600090815292529020556105f585858585610fce565b610ceb610f74565b61ffff83166000908152600160205260409020610d09908383611330565b507ffa41487ad5d6728f0b19276fa1eddc16558578f5109fc39d2dc33c3230470dab838383604051610d3d93929190611833565b60405180910390a1505050565b610d52610f74565b6001600160a01b038116610db75760405162461bcd60e51b815260206004820152602660248201527f4f776e61626c653a206e6577206f776e657220697320746865207a65726f206160448201526564647265737360d01b60648201526084016104c9565b610dc081611146565b50565b604051633d7b2f6f60e21b815261ffff808616600483015284166024820152306044820152606481018290526060907f00000000000000000000000000000000000000000000000000000000000000006001600160a01b03169063f5ecbdbc9060840160006040518083038186803b158015610e3e57600080fd5b505afa158015610e52573d6000803e3d6000fd5b505050506040513d6000823e601f3d908101601f19168201604052610e7a91908101906114fa565b95945050505050565b604051633356ae4560e11b815230906366ad5c8a90610eac9087908790879087906004016118b8565b600060405180830381600087803b158015610ec657600080fd5b505af1925050508015610ed7575060015b610950578080519060200120600260008661ffff1661ffff16815260200190815260200160002084604051610f0c9190611804565b9081526040805191829003602090810183206001600160401b0387166000908152915220919091557fe6f254030bcb01ffd20558175c13fcaed6d1520be7becee4c961b65f79243b0d90610f679086908690869086906118b8565b60405180910390a1610950565b6000546001600160a01b031633146109685760405162461bcd60e51b815260206004820181905260248201527f4f776e61626c653a2063616c6c6572206973206e6f7420746865206f776e657260448201526064016104c9565b600081806020019051810190610fe491906114b1565b61ffff8616600090815260016020526040812080549293509091611007906119b2565b80601f0160208091040260200160405190810160405280929190818152602001828054611033906119b2565b80156110805780601f1061105557610100808354040283529160200191611080565b820191906000526020600020905b81548152906001019060200180831161106357829003601f168201915b505050505080602001905181019061109891906114b1565b9050816001600160a01b0316816001600160a01b0316146110b857600080fd5b600080848060200190518101906110cf91906114cd565b60048054604051631188ab8560e21b81526001600160a01b0380861693820193909352602481018490529395509193501690634622ae1490604401600060405180830381600087803b15801561112457600080fd5b505af1158015611138573d6000803e3d6000fd5b505050505050505050505050565b600080546001600160a01b038381166001600160a01b0319831681178455604051919092169283917f8be0079c531659141344cd1fd0a4f28419497f9722a3daafe3b4186f6b6457e09190a35050565b61ffff8516600090815260016020526040812080546111b4906119b2565b80601f01602080910402602001604051908101604052809291908181526020018280546111e0906119b2565b801561122d5780601f106112025761010080835404028352916020019161122d565b820191906000526020600020905b81548152906001019060200180831161121057829003601f168201915b5050505050905080516000141561129f5760405162461bcd60e51b815260206004820152603060248201527f4c7a4170703a2064657374696e6174696f6e20636861696e206973206e6f742060448201526f61207472757374656420736f7572636560801b60648201526084016104c9565b60405162c5803160e81b81526001600160a01b037f0000000000000000000000000000000000000000000000000000000000000000169063c58031009034906112f6908a9086908b908b908b908b90600401611851565b6000604051808303818588803b15801561130f57600080fd5b505af1158015611323573d6000803e3d6000fd5b5050505050505050505050565b82805461133c906119b2565b90600052602060002090601f01602090048101928261135e57600085556113a4565b82601f106113775782800160ff198235161785556113a4565b828001600101855582156113a4579182015b828111156113a4578235825591602001919060010190611389565b506113b09291506113b4565b5090565b5b808211156113b057600081556001016113b5565b60008083601f8401126113da578182fd5b5081356001600160401b038111156113f0578182fd5b60208301915083602082850101111561140857600080fd5b9250929050565b600082601f83011261141f578081fd5b813561143261142d8261195f565b61192f565b818152846020838601011115611446578283fd5b816020850160208301379081016020019190915292915050565b803561ffff8116811461147257600080fd5b919050565b80356001600160401b038116811461147257600080fd5b60006020828403121561149f578081fd5b81356114aa81611a03565b9392505050565b6000602082840312156114c2578081fd5b81516114aa81611a03565b600080604083850312156114df578081fd5b82516114ea81611a03565b6020939093015192949293505050565b60006020828403121561150b578081fd5b81516001600160401b03811115611520578182fd5b8201601f81018413611530578182fd5b805161153e61142d8261195f565b818152856020838501011115611552578384fd5b610e7a826020830160208601611986565b600060208284031215611574578081fd5b6114aa82611460565b600080600060608486031215611591578081fd5b61159a84611460565b925060208401356115aa81611a03565b929592945050506040919091013590565b6000806000604084860312156115cf578283fd5b6115d884611460565b925060208401356001600160401b038111156115f2578283fd5b6115fe868287016113c9565b9497909650939450505050565b60008060006060848603121561161f578283fd5b61162884611460565b925060208401356001600160401b03811115611642578283fd5b61164e8682870161140f565b92505061165d60408501611477565b90509250925092565b6000806000806080858703121561167b578081fd5b61168485611460565b935060208501356001600160401b038082111561169f578283fd5b6116ab8883890161140f565b94506116b960408801611477565b935060608701359150808211156116ce578283fd5b506116db8782880161140f565b91505092959194509250565b600080600080608085870312156116fc578384fd5b61170585611460565b935061171360208601611460565b9250604085013561172381611a03565b9396929550929360600135925050565b60008060008060006080868803121561174a578081fd5b61175386611460565b945061176160208701611460565b93506040860135925060608601356001600160401b03811115611782578182fd5b61178e888289016113c9565b969995985093965092949392505050565b81835281816020850137506000828201602090810191909152601f909101601f19169091010190565b600081518084526117e0816020860160208601611986565b601f01601f19169290920160200192915050565b8183823760009101908152919050565b60008251611816818460208701611986565b9190910192915050565b6020815260006114aa60208301846117c8565b61ffff84168152604060208201526000610e7a60408301848661179f565b61ffff8716815260c06020820152600061186e60c08301886117c8565b828103604084015261188081886117c8565b6001600160a01b0387811660608601528616608085015283810360a085015290506118ab81856117c8565b9998505050505050505050565b61ffff851681526080602082015260006118d560808301866117c8565b6001600160401b038516604084015282810360608401526118f681856117c8565b979650505050505050565b600061ffff8088168352808716602084015250846040830152608060608301526118f660808301848661179f565b604051601f8201601f191681016001600160401b0381118282101715611957576119576119ed565b604052919050565b60006001600160401b03821115611978576119786119ed565b50601f01601f191660200190565b60005b838110156119a1578181015183820152602001611989565b838111156109505750506000910152565b600181811c908216806119c657607f821691505b602082108114156119e757634e487b7160e01b600052602260045260246000fd5b50919050565b634e487b7160e01b600052604160045260246000fd5b6001600160a01b0381168114610dc057600080fdfea264697066735822122081e7f201906993ff218ad4f1d3045382a8a7ac9ec79642d50e760ad1b07bcb4464736f6c63430008040033",
    "linkReferences": {}
  },
  "methodIdentifiers": {
    "admin()": "f851a440",
    "counter()": "61bc221a",
    "failedMessages(uint16,bytes,uint64)": "5b8c41e6",
    "forceResumeReceive(uint16,bytes)": "42d65a8d",
    "getConfig(uint16,uint16,address,uint256)": "f5ecbdbc",
    "isTrustedRemote(uint16,bytes)": "3d8b38f6",
    "lzEndpoint()": "b353aaa7",
    "lzReceive(uint16,bytes,uint64,bytes)": "001d3567",
    "nonblockingLzReceive(uint16,bytes,uint64,bytes)": "66ad5c8a",
    "owner()": "8da5cb5b",
    "renounceOwnership()": "715018a6",
    "retrieveTrustedRemoteLookup(uint16)": "4f952968",
    "retryMessage(uint16,bytes,uint64,bytes)": "d1deba1f",
    "setConfig(uint16,uint16,uint256,bytes)": "cbed8b9c",
    "setReceiveVersion(uint16)": "10ddb137",
    "setSendVersion(uint16)": "07e0db17",
    "setTokenContract(address)": "bbcd5bbe",
    "setTrustedRemote(uint16,bytes)": "eb8d72b7",
    "tokenContract()": "55a373d6",
    "transfer(uint16,address,uint256)": "ada1ddca",
    "transferOwnership(address)": "f2fde38b",
    "trustedRemoteLookup(uint16)": "7533d788"
  },
  "id": 3
}