{
  "abi": [
    {
      "inputs": [
        {
          "internalType": "address",
          "name": "_lzEndpoint",
          "type": "address"
        }
      ],
      "stateMutability": "nonpayable",
      "type": "constructor"
    },
    {
      "anonymous": false,
      "inputs": [
        {
          "indexed": false,
          "internalType": "uint16",
          "name": "_srcChainId",
          "type": "uint16"
        },
        {
          "indexed": false,
          "internalType": "bytes",
          "name": "_srcAddress",
          "type": "bytes"
        },
        {
          "indexed": false,
          "internalType": "uint64",
          "name": "_nonce",
          "type": "uint64"
        },
        {
          "indexed": false,
          "internalType": "bytes",
          "name": "_payload",
          "type": "bytes"
        }
      ],
      "name": "MessageFailed",
      "type": "event"
    },
    {
      "anonymous": false,
      "inputs": [
        {
          "indexed": true,
          "internalType": "address",
          "name": "previousOwner",
          "type": "address"
        },
        {
          "indexed": true,
          "internalType": "address",
          "name": "newOwner",
          "type": "address"
        }
      ],
      "name": "OwnershipTransferred",
      "type": "event"
    },
    {
      "anonymous": false,
      "inputs": [
        {
          "indexed": false,
          "internalType": "uint16",
          "name": "_srcChainId",
          "type": "uint16"
        },
        {
          "indexed": false,
          "internalType": "bytes",
          "name": "_srcAddress",
          "type": "bytes"
        }
      ],
      "name": "SetTrustedRemote",
      "type": "event"
    },
    {
      "inputs": [],
      "name": "counter",
      "outputs": [
        {
          "internalType": "uint256",
          "name": "",
          "type": "uint256"
        }
      ],
      "stateMutability": "view",
      "type": "function"
    },
    {
      "inputs": [
        {
          "internalType": "uint16",
          "name": "",
          "type": "uint16"
        },
        {
          "internalType": "bytes",
          "name": "",
          "type": "bytes"
        },
        {
          "internalType": "uint64",
          "name": "",
          "type": "uint64"
        }
      ],
      "name": "failedMessages",
      "outputs": [
        {
          "internalType": "bytes32",
          "name": "",
          "type": "bytes32"
        }
      ],
      "stateMutability": "view",
      "type": "function"
    },
    {
      "inputs": [
        {
          "internalType": "uint16",
          "name": "_srcChainId",
          "type": "uint16"
        },
        {
          "internalType": "bytes",
          "name": "_srcAddress",
          "type": "bytes"
        }
      ],
      "name": "forceResumeReceive",
      "outputs": [],
      "stateMutability": "nonpayable",
      "type": "function"
    },
    {
      "inputs": [
        {
          "internalType": "uint16",
          "name": "_version",
          "type": "uint16"
        },
        {
          "internalType": "uint16",
          "name": "_chainId",
          "type": "uint16"
        },
        {
          "internalType": "address",
          "name": "",
          "type": "address"
        },
        {
          "internalType": "uint256",
          "name": "_configType",
          "type": "uint256"
        }
      ],
      "name": "getConfig",
      "outputs": [
        {
          "internalType": "bytes",
          "name": "",
          "type": "bytes"
        }
      ],
      "stateMutability": "view",
      "type": "function"
    },
    {
      "inputs": [
        {
          "internalType": "uint16",
          "name": "_dstChainId",
          "type": "uint16"
        }
      ],
      "name": "incrementCounter",
      "outputs": [],
      "stateMutability": "payable",
      "type": "function"
    },
    {
      "inputs": [
        {
          "internalType": "uint16",
          "name": "_srcChainId",
          "type": "uint16"
        },
        {
          "internalType": "bytes",
          "name": "_srcAddress",
          "type": "bytes"
        }
      ],
      "name": "isTrustedRemote",
      "outputs": [
        {
          "internalType": "bool",
          "name": "",
          "type": "bool"
        }
      ],
      "stateMutability": "view",
      "type": "function"
    },
    {
      "inputs": [],
      "name": "lzEndpoint",
      "outputs": [
        {
          "internalType": "contract ILayerZeroEndpoint",
          "name": "",
          "type": "address"
        }
      ],
      "stateMutability": "view",
      "type": "function"
    },
    {
      "inputs": [
        {
          "internalType": "uint16",
          "name": "_srcChainId",
          "type": "uint16"
        },
        {
          "internalType": "bytes",
          "name": "_srcAddress",
          "type": "bytes"
        },
        {
          "internalType": "uint64",
          "name": "_nonce",
          "type": "uint64"
        },
        {
          "internalType": "bytes",
          "name": "_payload",
          "type": "bytes"
        }
      ],
      "name": "lzReceive",
      "outputs": [],
      "stateMutability": "nonpayable",
      "type": "function"
    },
    {
      "inputs": [
        {
          "internalType": "uint16",
          "name": "_srcChainId",
          "type": "uint16"
        },
        {
          "internalType": "bytes",
          "name": "_srcAddress",
          "type": "bytes"
        },
        {
          "internalType": "uint64",
          "name": "_nonce",
          "type": "uint64"
        },
        {
          "internalType": "bytes",
          "name": "_payload",
          "type": "bytes"
        }
      ],
      "name": "nonblockingLzReceive",
      "outputs": [],
      "stateMutability": "nonpayable",
      "type": "function"
    },
    {
      "inputs": [],
      "name": "owner",
      "outputs": [
        {
          "internalType": "address",
          "name": "",
          "type": "address"
        }
      ],
      "stateMutability": "view",
      "type": "function"
    },
    {
      "inputs": [],
      "name": "renounceOwnership",
      "outputs": [],
      "stateMutability": "nonpayable",
      "type": "function"
    },
    {
      "inputs": [
        {
          "internalType": "uint16",
          "name": "_srcChainId",
          "type": "uint16"
        },
        {
          "internalType": "bytes",
          "name": "_srcAddress",
          "type": "bytes"
        },
        {
          "internalType": "uint64",
          "name": "_nonce",
          "type": "uint64"
        },
        {
          "internalType": "bytes",
          "name": "_payload",
          "type": "bytes"
        }
      ],
      "name": "retryMessage",
      "outputs": [],
      "stateMutability": "payable",
      "type": "function"
    },
    {
      "inputs": [
        {
          "internalType": "uint16",
          "name": "_version",
          "type": "uint16"
        },
        {
          "internalType": "uint16",
          "name": "_chainId",
          "type": "uint16"
        },
        {
          "internalType": "uint256",
          "name": "_configType",
          "type": "uint256"
        },
        {
          "internalType": "bytes",
          "name": "_config",
          "type": "bytes"
        }
      ],
      "name": "setConfig",
      "outputs": [],
      "stateMutability": "nonpayable",
      "type": "function"
    },
    {
      "inputs": [
        {
          "internalType": "uint16",
          "name": "_version",
          "type": "uint16"
        }
      ],
      "name": "setReceiveVersion",
      "outputs": [],
      "stateMutability": "nonpayable",
      "type": "function"
    },
    {
      "inputs": [
        {
          "internalType": "uint16",
          "name": "_version",
          "type": "uint16"
        }
      ],
      "name": "setSendVersion",
      "outputs": [],
      "stateMutability": "nonpayable",
      "type": "function"
    },
    {
      "inputs": [
        {
          "internalType": "uint16",
          "name": "_srcChainId",
          "type": "uint16"
        },
        {
          "internalType": "bytes",
          "name": "_srcAddress",
          "type": "bytes"
        }
      ],
      "name": "setTrustedRemote",
      "outputs": [],
      "stateMutability": "nonpayable",
      "type": "function"
    },
    {
      "inputs": [
        {
          "internalType": "address",
          "name": "newOwner",
          "type": "address"
        }
      ],
      "name": "transferOwnership",
      "outputs": [],
      "stateMutability": "nonpayable",
      "type": "function"
    },
    {
      "inputs": [
        {
          "internalType": "uint16",
          "name": "",
          "type": "uint16"
        }
      ],
      "name": "trustedRemoteLookup",
      "outputs": [
        {
          "internalType": "bytes",
          "name": "",
          "type": "bytes"
        }
      ],
      "stateMutability": "view",
      "type": "function"
    }
  ],
  "bytecode": {
    "object": "0x60a060405234801561001057600080fd5b5060405161177d38038061177d83398101604081905261002f916100a2565b808061003a33610052565b60601b6001600160601b031916608052506100d09050565b600080546001600160a01b038381166001600160a01b0319831681178455604051919092169283917f8be0079c531659141344cd1fd0a4f28419497f9722a3daafe3b4186f6b6457e09190a35050565b6000602082840312156100b3578081fd5b81516001600160a01b03811681146100c9578182fd5b9392505050565b60805160601c61165e61011f600039600081816102f0015281816103a80152818161056d015281816105ef01528181610711015281816108ed01528181610bc30152610f2a015261165e6000f3fe6080604052600436106101085760003560e01c80637533d78811610095578063cbed8b9c11610064578063cbed8b9c14610312578063d1deba1f14610332578063eb8d72b714610345578063f2fde38b14610365578063f5ecbdbc1461038557600080fd5b80637533d7881461026c5780638da5cb5b146102995780639917565c146102cb578063b353aaa7146102de57600080fd5b806342d65a8d116100dc57806342d65a8d146101a45780635b8c41e6146101c457806361bc221a1461022157806366ad5c8a14610237578063715018a61461025757600080fd5b80621d35671461010d57806307e0db171461012f57806310ddb1371461014f5780633d8b38f61461016f575b600080fd5b34801561011957600080fd5b5061012d610128366004611269565b6103a5565b005b34801561013b57600080fd5b5061012d61014a3660046111a4565b61054c565b34801561015b57600080fd5b5061012d61016a3660046111a4565b6105ce565b34801561017b57600080fd5b5061018f61018a3660046111be565b610626565b60405190151581526020015b60405180910390f35b3480156101b057600080fd5b5061012d6101bf3660046111be565b6106f2565b3480156101d057600080fd5b506102136101df36600461120e565b6002602090815260009384526040808520845180860184018051928152908401958401959095209452929052825290205481565b60405190815260200161019b565b34801561022d57600080fd5b5061021360035481565b34801561024357600080fd5b5061012d610252366004611269565b610781565b34801561026357600080fd5b5061012d6107f1565b34801561027857600080fd5b5061028c6102873660046111a4565b610805565b60405161019b9190611421565b3480156102a557600080fd5b506000546001600160a01b03165b6040516001600160a01b03909116815260200161019b565b61012d6102d93660046111a4565b61089f565b3480156102ea57600080fd5b506102b37f000000000000000000000000000000000000000000000000000000000000000081565b34801561031e57600080fd5b5061012d61032d366004611334565b6108ce565b61012d610340366004611269565b610963565b34801561035157600080fd5b5061012d6103603660046111be565b610ab5565b34801561037157600080fd5b5061012d61038036600461111a565b610b1c565b34801561039157600080fd5b5061028c6103a03660046112ea565b610b92565b337f00000000000000000000000000000000000000000000000000000000000000006001600160a01b0316146104225760405162461bcd60e51b815260206004820152601e60248201527f4c7a4170703a20696e76616c696420656e64706f696e742063616c6c6572000060448201526064015b60405180910390fd5b61ffff841660009081526001602052604081208054610440906115d7565b80601f016020809104026020016040519081016040528092919081815260200182805461046c906115d7565b80156104b95780601f1061048e576101008083540402835291602001916104b9565b820191906000526020600020905b81548152906001019060200180831161049c57829003601f168201915b50505050509050805184511480156104de575080805190602001208480519060200120145b6105395760405162461bcd60e51b815260206004820152602660248201527f4c7a4170703a20696e76616c696420736f757263652073656e64696e6720636f6044820152651b9d1c9858dd60d21b6064820152608401610419565b61054585858585610c52565b5050505050565b610554610d43565b6040516307e0db1760e01b815261ffff821660048201527f00000000000000000000000000000000000000000000000000000000000000006001600160a01b0316906307e0db17906024015b600060405180830381600087803b1580156105ba57600080fd5b505af1158015610545573d6000803e3d6000fd5b6105d6610d43565b6040516310ddb13760e01b815261ffff821660048201527f00000000000000000000000000000000000000000000000000000000000000006001600160a01b0316906310ddb137906024016105a0565b61ffff831660009081526001602052604081208054829190610647906115d7565b80601f0160208091040260200160405190810160405280929190818152602001828054610673906115d7565b80156106c05780601f10610695576101008083540402835291602001916106c0565b820191906000526020600020905b8154815290600101906020018083116106a357829003601f168201915b5050505050905083836040516106d79291906113f5565b60405180910390208180519060200120149150509392505050565b6106fa610d43565b6040516342d65a8d60e01b81526001600160a01b037f000000000000000000000000000000000000000000000000000000000000000016906342d65a8d9061074a90869086908690600401611434565b600060405180830381600087803b15801561076457600080fd5b505af1158015610778573d6000803e3d6000fd5b50505050505050565b3330146107df5760405162461bcd60e51b815260206004820152602660248201527f4e6f6e626c6f636b696e674c7a4170703a2063616c6c6572206d7573742062656044820152650204c7a4170760d41b6064820152608401610419565b6107eb84848484610d9d565b50505050565b6107f9610d43565b6108036000610dbb565b565b6001602052600090815260409020805461081e906115d7565b80601f016020809104026020016040519081016040528092919081815260200182805461084a906115d7565b80156108975780601f1061086c57610100808354040283529160200191610897565b820191906000526020600020905b81548152906001019060200180831161087a57829003601f168201915b505050505081565b6108cb816040518060200160405280600081525033600060405180602001604052806000815250610e0b565b50565b6108d6610d43565b6040516332fb62e760e21b81526001600160a01b037f0000000000000000000000000000000000000000000000000000000000000000169063cbed8b9c9061092a9088908890889088908890600401611502565b600060405180830381600087803b15801561094457600080fd5b505af1158015610958573d6000803e3d6000fd5b505050505050505050565b61ffff84166000908152600260205260408082209051610984908690611405565b90815260408051602092819003830190206001600160401b03861660009081529252902054905080610a045760405162461bcd60e51b815260206004820152602360248201527f4e6f6e626c6f636b696e674c7a4170703a206e6f2073746f726564206d65737360448201526261676560e81b6064820152608401610419565b815160208301208114610a635760405162461bcd60e51b815260206004820152602160248201527f4e6f6e626c6f636b696e674c7a4170703a20696e76616c6964207061796c6f616044820152601960fa1b6064820152608401610419565b61ffff85166000908152600260205260408082209051610a84908790611405565b90815260408051602092819003830190206001600160401b0387166000908152925290205561054585858585610d9d565b610abd610d43565b61ffff83166000908152600160205260409020610adb908383610fa5565b507ffa41487ad5d6728f0b19276fa1eddc16558578f5109fc39d2dc33c3230470dab838383604051610b0f93929190611434565b60405180910390a1505050565b610b24610d43565b6001600160a01b038116610b895760405162461bcd60e51b815260206004820152602660248201527f4f776e61626c653a206e6577206f776e657220697320746865207a65726f206160448201526564647265737360d01b6064820152608401610419565b6108cb81610dbb565b604051633d7b2f6f60e21b815261ffff808616600483015284166024820152306044820152606481018290526060907f00000000000000000000000000000000000000000000000000000000000000006001600160a01b03169063f5ecbdbc9060840160006040518083038186803b158015610c0d57600080fd5b505afa158015610c21573d6000803e3d6000fd5b505050506040513d6000823e601f3d908101601f19168201604052610c49919081019061113b565b95945050505050565b604051633356ae4560e11b815230906366ad5c8a90610c7b9087908790879087906004016114b9565b600060405180830381600087803b158015610c9557600080fd5b505af1925050508015610ca6575060015b6107eb578080519060200120600260008661ffff1661ffff16815260200190815260200160002084604051610cdb9190611405565b9081526040805191829003602090810183206001600160401b0387166000908152915220919091557fe6f254030bcb01ffd20558175c13fcaed6d1520be7becee4c961b65f79243b0d90610d369086908690869086906114b9565b60405180910390a16107eb565b6000546001600160a01b031633146108035760405162461bcd60e51b815260206004820181905260248201527f4f776e61626c653a2063616c6c6572206973206e6f7420746865206f776e65726044820152606401610419565b600160036000828254610db09190611587565b909155505050505050565b600080546001600160a01b038381166001600160a01b0319831681178455604051919092169283917f8be0079c531659141344cd1fd0a4f28419497f9722a3daafe3b4186f6b6457e09190a35050565b61ffff851660009081526001602052604081208054610e29906115d7565b80601f0160208091040260200160405190810160405280929190818152602001828054610e55906115d7565b8015610ea25780601f10610e7757610100808354040283529160200191610ea2565b820191906000526020600020905b815481529060010190602001808311610e8557829003601f168201915b50505050509050805160001415610f145760405162461bcd60e51b815260206004820152603060248201527f4c7a4170703a2064657374696e6174696f6e20636861696e206973206e6f742060448201526f61207472757374656420736f7572636560801b6064820152608401610419565b60405162c5803160e81b81526001600160a01b037f0000000000000000000000000000000000000000000000000000000000000000169063c5803100903490610f6b908a9086908b908b908b908b90600401611452565b6000604051808303818588803b158015610f8457600080fd5b505af1158015610f98573d6000803e3d6000fd5b5050505050505050505050565b828054610fb1906115d7565b90600052602060002090601f016020900481019282610fd35760008555611019565b82601f10610fec5782800160ff19823516178555611019565b82800160010185558215611019579182015b82811115611019578235825591602001919060010190610ffe565b50611025929150611029565b5090565b5b80821115611025576000815560010161102a565b80356001600160a01b038116811461105557600080fd5b919050565b60008083601f84011261106b578081fd5b5081356001600160401b03811115611081578182fd5b60208301915083602082850101111561109957600080fd5b9250929050565b600082601f8301126110b0578081fd5b81356110c36110be82611560565b611530565b8181528460208386010111156110d7578283fd5b816020850160208301379081016020019190915292915050565b803561ffff8116811461105557600080fd5b80356001600160401b038116811461105557600080fd5b60006020828403121561112b578081fd5b6111348261103e565b9392505050565b60006020828403121561114c578081fd5b81516001600160401b03811115611161578182fd5b8201601f81018413611171578182fd5b805161117f6110be82611560565b818152856020838501011115611193578384fd5b610c498260208301602086016115ab565b6000602082840312156111b5578081fd5b611134826110f1565b6000806000604084860312156111d2578182fd5b6111db846110f1565b925060208401356001600160401b038111156111f5578283fd5b6112018682870161105a565b9497909650939450505050565b600080600060608486031215611222578283fd5b61122b846110f1565b925060208401356001600160401b03811115611245578283fd5b611251868287016110a0565b92505061126060408501611103565b90509250925092565b6000806000806080858703121561127e578081fd5b611287856110f1565b935060208501356001600160401b03808211156112a2578283fd5b6112ae888389016110a0565b94506112bc60408801611103565b935060608701359150808211156112d1578283fd5b506112de878288016110a0565b91505092959194509250565b600080600080608085870312156112ff578384fd5b611308856110f1565b9350611316602086016110f1565b92506113246040860161103e565b9396929550929360600135925050565b60008060008060006080868803121561134b578081fd5b611354866110f1565b9450611362602087016110f1565b93506040860135925060608601356001600160401b03811115611383578182fd5b61138f8882890161105a565b969995985093965092949392505050565b81835281816020850137506000828201602090810191909152601f909101601f19169091010190565b600081518084526113e18160208601602086016115ab565b601f01601f19169290920160200192915050565b8183823760009101908152919050565b600082516114178184602087016115ab565b9190910192915050565b60208152600061113460208301846113c9565b61ffff84168152604060208201526000610c496040830184866113a0565b61ffff8716815260c06020820152600061146f60c08301886113c9565b828103604084015261148181886113c9565b6001600160a01b0387811660608601528616608085015283810360a085015290506114ac81856113c9565b9998505050505050505050565b61ffff851681526080602082015260006114d660808301866113c9565b6001600160401b038516604084015282810360608401526114f781856113c9565b979650505050505050565b600061ffff8088168352808716602084015250846040830152608060608301526114f76080830184866113a0565b604051601f8201601f191681016001600160401b038111828210171561155857611558611612565b604052919050565b60006001600160401b0382111561157957611579611612565b50601f01601f191660200190565b600082198211156115a657634e487b7160e01b81526011600452602481fd5b500190565b60005b838110156115c65781810151838201526020016115ae565b838111156107eb5750506000910152565b600181811c908216806115eb57607f821691505b6020821081141561160c57634e487b7160e01b600052602260045260246000fd5b50919050565b634e487b7160e01b600052604160045260246000fdfea264697066735822122028c818f8312805d188215d84a372a9817efe56b617320236e8e3bbb48417039164736f6c63430008040033",
    "linkReferences": {}
  },
  "methodIdentifiers": {
    "counter()": "61bc221a",
    "failedMessages(uint16,bytes,uint64)": "5b8c41e6",
    "forceResumeReceive(uint16,bytes)": "42d65a8d",
    "getConfig(uint16,uint16,address,uint256)": "f5ecbdbc",
    "incrementCounter(uint16)": "9917565c",
    "isTrustedRemote(uint16,bytes)": "3d8b38f6",
    "lzEndpoint()": "b353aaa7",
    "lzReceive(uint16,bytes,uint64,bytes)": "001d3567",
    "nonblockingLzReceive(uint16,bytes,uint64,bytes)": "66ad5c8a",
    "owner()": "8da5cb5b",
    "renounceOwnership()": "715018a6",
    "retryMessage(uint16,bytes,uint64,bytes)": "d1deba1f",
    "setConfig(uint16,uint16,uint256,bytes)": "cbed8b9c",
    "setReceiveVersion(uint16)": "10ddb137",
    "setSendVersion(uint16)": "07e0db17",
    "setTrustedRemote(uint16,bytes)": "eb8d72b7",
    "transferOwnership(address)": "f2fde38b",
    "trustedRemoteLookup(uint16)": "7533d788"
  },
  "id": 6
}